:100000000C9462000C948A000C948A000C948A0070
:100010000C948A000C948A000C948A000C948A0038
:100020000C948A000C948A000C948A000C948A0028
:100030000C948A000C948A000C948A000C948A0018
:100040000C94A6030C948A000C948A000C948A00E9
:100050000C948A000C948A000C948A000C948A00F8
:100060000C94F0030C948A00000000002400270088
:100070002A0000000000250028002B0000000000DE
:1000800023002600290004040404040404040202DA
:100090000202020203030303030301020408102007
:1000A0004080010204081020010204081020000012
:1000B0000008000201000003040700000000000027
:1000C00000001A0511241FBECFEFD8E0DEBFCDBF60
:1000D00011E0A0E0B1E0EEE6FEE002C005900D9276
:1000E000A03DB107D9F722E0A0EDB1E001C01D921B
:1000F000AA36B207E1F710E0C2E6D0E004C02197CB
:10010000FE010E942A07C136D107C9F70E9449059E
:100110000C9435070C940000833081F028F4813072
:1001200099F08230A1F008958730A9F08830B9F0B5
:100130008430D1F4809180008F7D03C08091800055
:100140008F7780938000089584B58F7702C084B53F
:100150008F7D84BD08958091B0008F7703C080911A
:10016000B0008F7D8093B0000895CF93DF93282F48
:1001700030E0F901E255FF4F8491F901E656FF4F57
:10018000D491F901EA57FF4FC491CC2391F081112A
:100190000E948C00EC2FF0E0EE0FFF1FE458FF4FA1
:1001A000A591B491EC91ED2381E090E021F480E001
:1001B00002C080E090E0DF91CF9108951F93CF932C
:1001C000DF93282F30E0F901E255FF4F8491F901C8
:1001D000E656FF4FD491F901EA57FF4FC491CC2363
:1001E000C1F0162F81110E948C00EC2FF0E0EE0F71
:1001F000FF1FEE58FF4FA591B4919FB7F8941111CE
:1002000004C08C91D095D82302C0EC91DE2BDC93F6
:100210009FBFDF91CF911F910895CF93DF9390E01F
:10022000FC01E656FF4F2491FC01EA57FF4F8491F1
:10023000882361F190E0880F991FFC01E859FF4F76
:10024000C591D491FC01EE58FF4FA591B491611175
:1002500009C09FB7F8948881209582238883EC9108
:100260002E230BC0623061F49FB7F8948881322F3F
:10027000309583238883EC912E2B2C939FBF06C04F
:100280008FB7F894E8812E2B28838FBFDF91CF9111
:1002900008953FB7F8948091420290914302A09153
:1002A0004402B091450226B5A89B05C02F3F19F026
:1002B0000196A11DB11D3FBFBA2FA92F982F8827E6
:1002C000820F911DA11DB11DBC01CD0142E0660F41
:1002D000771F881F991F4A95D1F708958F929F9293
:1002E000AF92BF92CF92DF92EF92FF926B017C01AF
:1002F0000E9449014B015C01C114D104E104F104E5
:10030000F1F00E944901DC01CB0188199909AA0981
:10031000BB09883E9340A105B10570F321E0C21AE4
:10032000D108E108F10888EE880E83E0981EA11C30
:10033000B11CC114D104E104F10419F7DDCFFF9021
:10034000EF90DF90CF90BF90AF909F908F900895E7
:10035000CF92DF92EF92FF920F931F93CF93DF9391
:100360006C017A018B01C0E0D0E0CE15DF0581F091
:10037000D8016D918D01D601ED91FC910190F08134
:10038000E02DC6010995892B11F02196EECF7E0153
:10039000C701DF91CF911F910F91FF90EF90DF90F8
:1003A000CF90089585ED8093BC008091BC0084FDC2
:1003B000FCCF1092150208954091F101262F30E0F4
:1003C000240F311D21323105DCF420911502243037
:1003D000C9F4FC0180E090E0861758F43091F101F7
:1003E0002191DC01AF52BE4FA30FB11D2C9301969A
:1003F000F3CF8091F101680F6093F10180E00895DF
:1004000081E0089582E0089508958FEF9FEF0895A9
:100410008FEF9FEF08958091D00190E091958195A5
:1004200091090895CF93DF93CB01EA01642F0E94D5
:10043000DC01CE01DF91CF910895CF93DF931F921E
:10044000CDB7DEB7698361E0CE0101960E94DC0181
:1004500081E090E00F90DF91CF910895CF93DF93EB
:10046000EC0160E08E810E94DE0061E08E810E94DE
:10047000DE0060E08E810E94DE008BE891E0019753
:10048000F1F7DF91CF910895CF92DF92EF92FF9233
:100490000F931F93CF93DF936C017C0187E0E80EED
:1004A000F11CC0E0D0E0062F10E0B8010C2E02C015
:1004B000759567950A94E2F76170F70181917F0164
:1004C0000E94DE002196C430D10579F7C601DF9184
:1004D000CF911F910F91FF90EF90DF90CF900C94F0
:1004E0002E02CF92DF92EF92FF920F931F93CF9342
:1004F000DF93EC01F62E642F8C810E94DE008D814B
:100500008F3F19F060E00E94DE008F850F2D10E014
:1005100084FF25C06E0187E0C80ED11CE12CF12CB0
:10052000B8010E2C02C0759567950A94E2F76170C8
:10053000F60181916F010E94DE00FFEFEF1AFF0AC2
:1005400088E0E816F10461F7CE01DF91CF911F91A9
:100550000F91FF90EF90DF90CF900C942E02B80196
:1005600084E0759567958A95E1F7CE010E94440273
:100570006F2DCE01DF91CF911F910F91FF90EF90E2
:10058000DF90CF900C94440240E0682F82E592E027
:100590000C94710281E00E94C4028BE39FE10197F9
:1005A000F1F70895CF93DF93623028F090916102C4
:1005B000986090936102609365021092660290E4E5
:1005C000909367028093680290E0805C9F4F8093D5
:1005D000690261E0809156020E940D0180915702EC
:1005E0008F3F19F061E00E940D0161E08091580297
:1005F0000E940D01C2E5D2E09E0122553240809159
:10060000610284FD03C084E090E002C088E090E0D5
:100610002196281739072CF461E08E810E940D0184
:10062000EBCF8BE39DE00197F1F760E080915602FC
:100630000E94DE0060E0809158020E94DE008091FE
:1006400057028F3F19F060E00E94DE008091610246
:1006500084FD20C063E082E592E00E944402CBE486
:10066000D6E4CE010197F1F763E082E592E00E94C3
:1006700044022197F1F763E082E592E00E94440290
:1006800083E592E00197F1F762E082E592E00E9453
:10069000440215C080620E94C4028BE496E4019774
:1006A000F1F78091610280620E94C40283E592E0CA
:1006B0000197F1F78091610280620E94C4028091EB
:1006C000610280620E94C40284E0809362028CE036
:1006D0000E94C4020E94CA0282E08093630286E004
:1006E000DF91CF910C94C402643008F063E09091E4
:1006F0006502691710F06FEF690FE62FF0E0EE5A10
:10070000FD4F9489890F80680C94C40241E00E94D7
:10071000710281E090E00895089580E090E00895EE
:10072000009769F0FC0101900020E9F73197AF01D3
:10073000481B590BBC0182E592E00C94A80180E0B3
:1007400090E008950C9490030E9430071F920F923E
:100750000FB60F9211242F933F938F939F93AF93D4
:10076000BF9380913E0290913F02A0914002B091D0
:10077000410230913D0223E0230F2D3720F40196F2
:10078000A11DB11D05C026E8230F0296A11DB11DB4
:1007900020933D0280933E0290933F02A09340023B
:1007A000B09341028091420290914302A091440291
:1007B000B09145020196A11DB11D80934202909314
:1007C0004302A0934402B0934502BF91AF919F9121
:1007D0008F913F912F910F900FBE0F901F90189502
:1007E0001F920F920FB60F9211242F933F934F93A6
:1007F0005F936F937F938F939F93AF93BF93EF9389
:10080000FF938091B900887F803609F49CC068F519
:10081000883209F45BC090F4803109F454C038F494
:10082000882309F4F2C0883009F44DC0F2C0883141
:1008300009F44CC0803209F45DC0EBC0803409F487
:1008400068C048F4803309F455C0883309F0E1C02A
:1008500080931402D4C0803509F44FC0883509F460
:100860005DC0883409F0D5C0D2C0883909F4C3C04E
:10087000A8F4883709F467C038F4883609F463C0EF
:10088000803709F460C0C5C0883809F4B4C0803925
:1008900009F45FC0803809F0BCC05BC0803B09F43C
:1008A00084C038F4803A09F466C0883A09F47DC0FF
:1008B000B0C0803C09F4A3C0883C09F4A0C0883BC8
:1008C00009F486C0A6C080913A0210C09091390206
:1008D00080913802981770F5E091390281E08E0F0F
:1008E00080933902F0E0E85EFD4F80818093BB0089
:1008F00085EC82C0809314028AC0E091390281E0C5
:100900008E0F809339028091BB00F0E0E85EFD4FCE
:10091000808390913902809138026AC0E091390257
:1009200081E08E0F809339028091BB00F0E0E85E99
:10093000FD4F808380911702811169C081E080930F
:10094000160284EA5DC083E08093150210921302C0
:10095000CFCF80911302803208F04DC0E091130296
:1009600081E08E0F809313028091BB00F0E0ED5088
:10097000FE4F8083BDCF85EC8093BC0010921502A2
:1009800080911302803230F4E0911302F0E0ED50D8
:10099000FE4F10826091130270E083EF91E0E0E07F
:1009A000F0E009951092130234C084E080931502A0
:1009B0001092F2011092F101E0E0F0E009958091CF
:1009C000F101811105C081E08093F1011092D10104
:1009D000E091F20181E08E0F8093F201F0E0EF529E
:1009E000FE4F80818093BB009091F2018091F101D4
:1009F000981708F47DCF85E88093BC000AC085EC89
:100A00008093BC001092150204C0109214020E9440
:100A1000D201FF91EF91BF91AF919F918F917F9103
:100A20006F915F914F913F912F910F900FBE0F905B
:100A30001F901895E6E4F2E01382128288EE93E0AC
:100A4000A0E0B0E084839583A683B78384E091E03F
:100A500091838083E2E5F2E01382128286E191E0E5
:100A60009183808387E084838FEF858386E086830C
:100A700085E0878384E0808783E0818782E08287C6
:100A80001386148615861686178661E080E10C941D
:100A9000D202CF93DF93CDB7DEB7A1970FB6F8940C
:100AA000DEBF0FBECDBF789484B5826084BD84B5AF
:100AB000816084BD85B5826085BD85B5816085BD59
:100AC00080916E00816080936E0010928100809111
:100AD0008100826080938100809181008160809399
:100AE0008100809180008160809380008091B100BE
:100AF00084608093B1008091B00081608093B000E9
:100B000080917A00846080937A0080917A0082607C
:100B100080937A0080917A00816080937A0080913E
:100B20007A00806880937A001092C10060E08DE0C6
:100B30000E940D0160E08CE00E940D0161E089E0FF
:100B40000E940D0161E08AE00E940D0161E08BE0EE
:100B50000E940D0164E084E10E94D2028EE191E0E6
:100B60000E94A20361E080E00E94740380E391E0B0
:100B70000E94A20362E080E00E94740382E491E09C
:100B80000E94A20363E080E00E94740386E591E086
:100B90000E94A20368EE73E080E090E00E946E0184
:100BA0000E94CA0280E4382E44244A9493E0592ECD
:100BB000612C712C2AE0C22ED12CE12CF12C8DE07D
:100BC0000E94B500019709F0E6C060E080E00E9455
:100BD000740380E691E00E94A20361E082E00E943B
:100BE000740385E691E00E94A20368EB7BE080E05D
:100BF00090E00E946E018CE00E94B500019709F020
:100C0000CAC061E089E00E94DE000E94CA0282E759
:100C100091E00E94A20368EE73E080E090E00E9401
:100C20006E0160E089E00E94DE000E94CA0285E851
:100C300091E00E94A20330927C0080917A0080644F
:100C400080937A0080917A0086FDFCCFA091780095
:100C500080917900B0E0B82B2CE330E00E942307AC
:100C6000A30192010E94D30649015A0130933C022C
:100C700020933B0261E080E00E947403B7FE21C034
:100C800041E06DE282E592E00E9471022227332763
:100C9000A901281939094A095B0919A28E010F5DBA
:100CA0001F4FCA01B901A70196010E94F206605DBB
:100CB000F80162938F01211531054105510589F72E
:100CC00015C0A501940119A28E010F5D1F4FCA0125
:100CD000B901A70196010E94F206605DF8016293D6
:100CE0008F01211531054105510589F7C8010E9481
:100CF000900388E991E00E94A20368EE73E080E02F
:100D000090E00E946E0161E08AE00E94DE0061E0F6
:100D100080E00E9474038EE991E00E94A203A091FA
:100D20003B02B0913C0220E63AEE0E9423070E946B
:100D30006E0160E08AE00E94DE0061E089E00E94CE
:100D4000DE000E94CA0289EA91E00E94A20368EBD9
:100D50007BE080E090E00E946E0160E089E00E940C
:100D6000DE000E94CA028CEB91E00E94A20361E0C7
:100D70008BE00E94DE0068EE73E080E090E00E946D
:100D80006E0160E08BE00E94DE0068EB7BE080E0BB
:100D900090E00E946E0180E090E0892B09F40FCF73
:100DA0000E9400000CCF052E97FB1EF400940E94B9
:100DB000EA0657FD07D00E94F20607FC03D04EF466
:100DC0000C94EA0650954095309521953F4F4F4F32
:100DD0005F4F089590958095709561957F4F8F4FE7
:100DE0009F4F0895A1E21A2EAA1BBB1BFD010DC047
:100DF000AA1FBB1FEE1FFF1FA217B307E407F507CB
:100E000020F0A21BB30BE40BF50B661F771F881FA6
:100E1000991F1A9469F760957095809590959B013C
:100E2000AC01BD01CF010895A29FB001B39FC001E5
:100E3000A39F700D811D1124911DB29F700D811D06
:100E40001124911D08950E941407B7FF0895821B75
:100E5000930B0895EE0FFF1F0590F491E02D099478
:0E0E600081E090E0F8940C943507F894FFCFF1
:100E6E00000000001D0212028D0304020B02080294
:100E7E000502000000008603A8018D038C03205795
:100E8E00617368696E67204D616368696E652000E5
:100E9E0020202020436F6E74726F6C6C6572202060
:100EAE0020002020202020202042792020202020D9
:100EBE00202020202000204B616C70616E6120008C
:100ECE0077616974002E2E447261696E696E672EA9
:100EDE002E00447261696E2076616C766520636CBB
:100EEE006F736564005365742077617368696E670C
:100EFE002074696D65723A00206D696E73005761DA
:100F0E007368696E672E2E2E00447261696E2076AC
:100F1E00616C7665206F70656E65640057617368ED
:100F2E00696E6720636F6D706C6574656421000077
:00000001FF
